{
  "_format": "hh-sol-artifact-1",
  "contractName": "Nafta",
  "sourceName": "contracts/Nafta.sol",
  "abi": [
    {
      "inputs": [
        {
          "internalType": "address",
          "name": "owner_",
          "type": "address"
        },
        {
          "internalType": "contract IERC20",
          "name": "WETH9_",
          "type": "address"
        }
      ],
      "stateMutability": "nonpayable",
      "type": "constructor"
    },
    {
      "anonymous": false,
      "inputs": [
        {
          "indexed": false,
          "internalType": "address",
          "name": "nftAddress",
          "type": "address"
        },
        {
          "indexed": false,
          "internalType": "uint256",
          "name": "nftId",
          "type": "uint256"
        },
        {
          "indexed": false,
          "internalType": "uint256",
          "name": "flashFee",
          "type": "uint256"
        },
        {
          "indexed": false,
          "internalType": "uint256",
          "name": "pricePerBlock",
          "type": "uint256"
        },
        {
          "indexed": false,
          "internalType": "uint256",
          "name": "maxLongtermBlocks",
          "type": "uint256"
        },
        {
          "indexed": false,
          "internalType": "uint256",
          "name": "lenderNFTId",
          "type": "uint256"
        },
        {
          "indexed": false,
          "internalType": "address",
          "name": "msgSender",
          "type": "address"
        }
      ],
      "name": "AddNFT",
      "type": "event"
    },
    {
      "anonymous": false,
      "inputs": [
        {
          "indexed": true,
          "internalType": "address",
          "name": "owner",
          "type": "address"
        },
        {
          "indexed": true,
          "internalType": "address",
          "name": "approved",
          "type": "address"
        },
        {
          "indexed": true,
          "internalType": "uint256",
          "name": "tokenId",
          "type": "uint256"
        }
      ],
      "name": "Approval",
      "type": "event"
    },
    {
      "anonymous": false,
      "inputs": [
        {
          "indexed": true,
          "internalType": "address",
          "name": "owner",
          "type": "address"
        },
        {
          "indexed": true,
          "internalType": "address",
          "name": "operator",
          "type": "address"
        },
        {
          "indexed": false,
          "internalType": "bool",
          "name": "approved",
          "type": "bool"
        }
      ],
      "name": "ApprovalForAll",
      "type": "event"
    },
    {
      "anonymous": false,
      "inputs": [
        {
          "indexed": false,
          "internalType": "address",
          "name": "nftAddress",
          "type": "address"
        },
        {
          "indexed": false,
          "internalType": "uint256",
          "name": "nftId",
          "type": "uint256"
        },
        {
          "indexed": false,
          "internalType": "uint256",
          "name": "flashFee",
          "type": "uint256"
        },
        {
          "indexed": false,
          "internalType": "uint256",
          "name": "pricePerBlock",
          "type": "uint256"
        },
        {
          "indexed": false,
          "internalType": "uint256",
          "name": "maxLongtermBlocks",
          "type": "uint256"
        },
        {
          "indexed": false,
          "internalType": "uint256",
          "name": "lenderNFTId",
          "type": "uint256"
        },
        {
          "indexed": false,
          "internalType": "address",
          "name": "msgSender",
          "type": "address"
        }
      ],
      "name": "EditNFT",
      "type": "event"
    },
    {
      "anonymous": false,
      "inputs": [
        {
          "indexed": false,
          "internalType": "address",
          "name": "nftAddress",
          "type": "address"
        },
        {
          "indexed": false,
          "internalType": "uint256",
          "name": "nftId",
          "type": "uint256"
        },
        {
          "indexed": false,
          "internalType": "uint256",
          "name": "earnedFees",
          "type": "uint256"
        },
        {
          "indexed": false,
          "internalType": "address",
          "name": "msgSender",
          "type": "address"
        }
      ],
      "name": "Flashloan",
      "type": "event"
    },
    {
      "anonymous": false,
      "inputs": [
        {
          "indexed": false,
          "internalType": "address",
          "name": "nftAddress",
          "type": "address"
        },
        {
          "indexed": false,
          "internalType": "uint256",
          "name": "nftId",
          "type": "uint256"
        },
        {
          "indexed": false,
          "internalType": "uint256",
          "name": "blocks",
          "type": "uint256"
        },
        {
          "indexed": false,
          "internalType": "uint256",
          "name": "earnedFees",
          "type": "uint256"
        },
        {
          "indexed": false,
          "internalType": "uint256",
          "name": "borrowerNFTId",
          "type": "uint256"
        },
        {
          "indexed": false,
          "internalType": "address",
          "name": "msgSender",
          "type": "address"
        }
      ],
      "name": "LongtermRent",
      "type": "event"
    },
    {
      "anonymous": false,
      "inputs": [
        {
          "indexed": true,
          "internalType": "address",
          "name": "previousOwner",
          "type": "address"
        },
        {
          "indexed": true,
          "internalType": "address",
          "name": "newOwner",
          "type": "address"
        }
      ],
      "name": "OwnershipTransferred",
      "type": "event"
    },
    {
      "anonymous": false,
      "inputs": [
        {
          "indexed": false,
          "internalType": "uint256",
          "name": "newPoolFee",
          "type": "uint256"
        }
      ],
      "name": "PoolFeeChanged",
      "type": "event"
    },
    {
      "anonymous": false,
      "inputs": [
        {
          "indexed": false,
          "internalType": "address",
          "name": "nftAddress",
          "type": "address"
        },
        {
          "indexed": false,
          "internalType": "uint256",
          "name": "nftId",
          "type": "uint256"
        },
        {
          "indexed": false,
          "internalType": "uint256",
          "name": "lenderNFTId",
          "type": "uint256"
        },
        {
          "indexed": false,
          "internalType": "address",
          "name": "msgSender",
          "type": "address"
        }
      ],
      "name": "RemoveNFT",
      "type": "event"
    },
    {
      "anonymous": false,
      "inputs": [
        {
          "indexed": true,
          "internalType": "address",
          "name": "from",
          "type": "address"
        },
        {
          "indexed": true,
          "internalType": "address",
          "name": "to",
          "type": "address"
        },
        {
          "indexed": true,
          "internalType": "uint256",
          "name": "tokenId",
          "type": "uint256"
        }
      ],
      "name": "Transfer",
      "type": "event"
    },
    {
      "anonymous": false,
      "inputs": [
        {
          "indexed": false,
          "internalType": "uint256",
          "name": "earnings",
          "type": "uint256"
        },
        {
          "indexed": false,
          "internalType": "address",
          "name": "msgSender",
          "type": "address"
        }
      ],
      "name": "WithdrawEarnings",
      "type": "event"
    },
    {
      "inputs": [
        {
          "internalType": "address",
          "name": "nftAddress",
          "type": "address"
        },
        {
          "internalType": "uint256",
          "name": "nftId",
          "type": "uint256"
        }
      ],
      "name": "actualizeLongterm",
      "outputs": [],
      "stateMutability": "nonpayable",
      "type": "function"
    },
    {
      "inputs": [
        {
          "internalType": "address",
          "name": "nftAddress",
          "type": "address"
        },
        {
          "internalType": "uint256",
          "name": "nftId",
          "type": "uint256"
        },
        {
          "internalType": "uint256",
          "name": "flashFee",
          "type": "uint256"
        },
        {
          "internalType": "uint256",
          "name": "pricePerBlock",
          "type": "uint256"
        },
        {
          "internalType": "uint256",
          "name": "maxLongtermBlocks",
          "type": "uint256"
        }
      ],
      "name": "addNFT",
      "outputs": [],
      "stateMutability": "nonpayable",
      "type": "function"
    },
    {
      "inputs": [
        {
          "internalType": "address",
          "name": "to",
          "type": "address"
        },
        {
          "internalType": "uint256",
          "name": "tokenId",
          "type": "uint256"
        }
      ],
      "name": "approve",
      "outputs": [],
      "stateMutability": "nonpayable",
      "type": "function"
    },
    {
      "inputs": [
        {
          "internalType": "address",
          "name": "owner",
          "type": "address"
        }
      ],
      "name": "balanceOf",
      "outputs": [
        {
          "internalType": "uint256",
          "name": "",
          "type": "uint256"
        }
      ],
      "stateMutability": "view",
      "type": "function"
    },
    {
      "inputs": [],
      "name": "borrowerNFTCount",
      "outputs": [
        {
          "internalType": "uint256",
          "name": "",
          "type": "uint256"
        }
      ],
      "stateMutability": "view",
      "type": "function"
    },
    {
      "inputs": [
        {
          "internalType": "uint256",
          "name": "newPoolFee",
          "type": "uint256"
        }
      ],
      "name": "changePoolFee",
      "outputs": [],
      "stateMutability": "nonpayable",
      "type": "function"
    },
    {
      "inputs": [],
      "name": "claimOwnership",
      "outputs": [],
      "stateMutability": "nonpayable",
      "type": "function"
    },
    {
      "inputs": [
        {
          "internalType": "address",
          "name": "",
          "type": "address"
        }
      ],
      "name": "earnings",
      "outputs": [
        {
          "internalType": "uint256",
          "name": "",
          "type": "uint256"
        }
      ],
      "stateMutability": "view",
      "type": "function"
    },
    {
      "inputs": [
        {
          "internalType": "address",
          "name": "nftAddress",
          "type": "address"
        },
        {
          "internalType": "uint256",
          "name": "nftId",
          "type": "uint256"
        },
        {
          "internalType": "uint256",
          "name": "flashFee",
          "type": "uint256"
        },
        {
          "internalType": "uint256",
          "name": "pricePerBlock",
          "type": "uint256"
        },
        {
          "internalType": "uint256",
          "name": "maxLongtermBlocks",
          "type": "uint256"
        }
      ],
      "name": "editNFT",
      "outputs": [],
      "stateMutability": "nonpayable",
      "type": "function"
    },
    {
      "inputs": [
        {
          "internalType": "address",
          "name": "nftAddress",
          "type": "address"
        },
        {
          "internalType": "uint256",
          "name": "nftId",
          "type": "uint256"
        },
        {
          "internalType": "uint256",
          "name": "maxLoanPrice",
          "type": "uint256"
        },
        {
          "internalType": "address",
          "name": "receiverAddress",
          "type": "address"
        },
        {
          "internalType": "bytes",
          "name": "data",
          "type": "bytes"
        }
      ],
      "name": "flashloan",
      "outputs": [],
      "stateMutability": "nonpayable",
      "type": "function"
    },
    {
      "inputs": [
        {
          "components": [
            {
              "internalType": "uint256",
              "name": "flashFee",
              "type": "uint256"
            },
            {
              "internalType": "uint256",
              "name": "pricePerBlock",
              "type": "uint256"
            },
            {
              "internalType": "uint256",
              "name": "maxLongtermBlocks",
              "type": "uint256"
            },
            {
              "internalType": "uint256",
              "name": "inLongtermTillBlock",
              "type": "uint256"
            },
            {
              "internalType": "uint256",
              "name": "borrowerNFTId",
              "type": "uint256"
            },
            {
              "internalType": "uint256",
              "name": "lenderNFTId",
              "type": "uint256"
            }
          ],
          "internalType": "struct INafta.BigPoolNFT",
          "name": "bigPoolNFT",
          "type": "tuple"
        }
      ],
      "name": "fromBigPoolNFT",
      "outputs": [
        {
          "components": [
            {
              "internalType": "uint72",
              "name": "flashFee",
              "type": "uint72"
            },
            {
              "internalType": "uint72",
              "name": "pricePerBlock",
              "type": "uint72"
            },
            {
              "internalType": "uint24",
              "name": "maxLongtermBlocks",
              "type": "uint24"
            },
            {
              "internalType": "uint32",
              "name": "inLongtermTillBlock",
              "type": "uint32"
            },
            {
              "internalType": "uint32",
              "name": "borrowerNFTId",
              "type": "uint32"
            },
            {
              "internalType": "uint32",
              "name": "lenderNFTId",
              "type": "uint32"
            }
          ],
          "internalType": "struct INafta.PoolNFT",
          "name": "",
          "type": "tuple"
        }
      ],
      "stateMutability": "pure",
      "type": "function"
    },
    {
      "inputs": [
        {
          "internalType": "uint256",
          "name": "tokenId",
          "type": "uint256"
        }
      ],
      "name": "getApproved",
      "outputs": [
        {
          "internalType": "address",
          "name": "",
          "type": "address"
        }
      ],
      "stateMutability": "view",
      "type": "function"
    },
    {
      "inputs": [
        {
          "internalType": "address",
          "name": "owner",
          "type": "address"
        },
        {
          "internalType": "address",
          "name": "operator",
          "type": "address"
        }
      ],
      "name": "isApprovedForAll",
      "outputs": [
        {
          "internalType": "bool",
          "name": "",
          "type": "bool"
        }
      ],
      "stateMutability": "view",
      "type": "function"
    },
    {
      "inputs": [
        {
          "internalType": "address",
          "name": "nftAddress",
          "type": "address"
        },
        {
          "internalType": "uint256",
          "name": "nftId",
          "type": "uint256"
        },
        {
          "internalType": "uint256",
          "name": "maxPricePerBlock",
          "type": "uint256"
        },
        {
          "internalType": "address",
          "name": "receiverAddress",
          "type": "address"
        },
        {
          "internalType": "uint256",
          "name": "blocks",
          "type": "uint256"
        }
      ],
      "name": "lendLong",
      "outputs": [],
      "stateMutability": "nonpayable",
      "type": "function"
    },
    {
      "inputs": [],
      "name": "lenderNFTCount",
      "outputs": [
        {
          "internalType": "uint256",
          "name": "",
          "type": "uint256"
        }
      ],
      "stateMutability": "view",
      "type": "function"
    },
    {
      "inputs": [],
      "name": "name",
      "outputs": [
        {
          "internalType": "string",
          "name": "",
          "type": "string"
        }
      ],
      "stateMutability": "view",
      "type": "function"
    },
    {
      "inputs": [
        {
          "internalType": "address",
          "name": "",
          "type": "address"
        },
        {
          "internalType": "address",
          "name": "",
          "type": "address"
        },
        {
          "internalType": "uint256",
          "name": "",
          "type": "uint256"
        },
        {
          "internalType": "bytes",
          "name": "",
          "type": "bytes"
        }
      ],
      "name": "onERC721Received",
      "outputs": [
        {
          "internalType": "bytes4",
          "name": "",
          "type": "bytes4"
        }
      ],
      "stateMutability": "nonpayable",
      "type": "function"
    },
    {
      "inputs": [],
      "name": "owner",
      "outputs": [
        {
          "internalType": "address",
          "name": "",
          "type": "address"
        }
      ],
      "stateMutability": "view",
      "type": "function"
    },
    {
      "inputs": [
        {
          "internalType": "uint256",
          "name": "tokenId",
          "type": "uint256"
        }
      ],
      "name": "ownerOf",
      "outputs": [
        {
          "internalType": "address",
          "name": "",
          "type": "address"
        }
      ],
      "stateMutability": "view",
      "type": "function"
    },
    {
      "inputs": [],
      "name": "poolFee",
      "outputs": [
        {
          "internalType": "uint256",
          "name": "",
          "type": "uint256"
        }
      ],
      "stateMutability": "view",
      "type": "function"
    },
    {
      "inputs": [],
      "name": "poolFeeChangedAtBlock",
      "outputs": [
        {
          "internalType": "uint256",
          "name": "",
          "type": "uint256"
        }
      ],
      "stateMutability": "view",
      "type": "function"
    },
    {
      "inputs": [
        {
          "internalType": "address",
          "name": "nftAddress",
          "type": "address"
        },
        {
          "internalType": "uint256",
          "name": "nftId",
          "type": "uint256"
        }
      ],
      "name": "poolNFTs",
      "outputs": [
        {
          "components": [
            {
              "internalType": "uint72",
              "name": "flashFee",
              "type": "uint72"
            },
            {
              "internalType": "uint72",
              "name": "pricePerBlock",
              "type": "uint72"
            },
            {
              "internalType": "uint24",
              "name": "maxLongtermBlocks",
              "type": "uint24"
            },
            {
              "internalType": "uint32",
              "name": "inLongtermTillBlock",
              "type": "uint32"
            },
            {
              "internalType": "uint32",
              "name": "borrowerNFTId",
              "type": "uint32"
            },
            {
              "internalType": "uint32",
              "name": "lenderNFTId",
              "type": "uint32"
            }
          ],
          "internalType": "struct INafta.PoolNFT",
          "name": "nft",
          "type": "tuple"
        }
      ],
      "stateMutability": "view",
      "type": "function"
    },
    {
      "inputs": [
        {
          "internalType": "address",
          "name": "newOwner",
          "type": "address"
        }
      ],
      "name": "proposeNewOwner",
      "outputs": [],
      "stateMutability": "nonpayable",
      "type": "function"
    },
    {
      "inputs": [],
      "name": "proposedOwner",
      "outputs": [
        {
          "internalType": "address",
          "name": "",
          "type": "address"
        }
      ],
      "stateMutability": "view",
      "type": "function"
    },
    {
      "inputs": [
        {
          "internalType": "address",
          "name": "nftAddress",
          "type": "address"
        },
        {
          "internalType": "uint256",
          "name": "nftId",
          "type": "uint256"
        }
      ],
      "name": "removeNFT",
      "outputs": [],
      "stateMutability": "nonpayable",
      "type": "function"
    },
    {
      "inputs": [],
      "name": "renounceOwnership",
      "outputs": [],
      "stateMutability": "nonpayable",
      "type": "function"
    },
    {
      "inputs": [
        {
          "internalType": "address",
          "name": "from",
          "type": "address"
        },
        {
          "internalType": "address",
          "name": "to",
          "type": "address"
        },
        {
          "internalType": "uint256",
          "name": "tokenId",
          "type": "uint256"
        }
      ],
      "name": "safeTransferFrom",
      "outputs": [],
      "stateMutability": "nonpayable",
      "type": "function"
    },
    {
      "inputs": [
        {
          "internalType": "address",
          "name": "from",
          "type": "address"
        },
        {
          "internalType": "address",
          "name": "to",
          "type": "address"
        },
        {
          "internalType": "uint256",
          "name": "tokenId",
          "type": "uint256"
        },
        {
          "internalType": "bytes",
          "name": "_data",
          "type": "bytes"
        }
      ],
      "name": "safeTransferFrom",
      "outputs": [],
      "stateMutability": "nonpayable",
      "type": "function"
    },
    {
      "inputs": [
        {
          "internalType": "address",
          "name": "operator",
          "type": "address"
        },
        {
          "internalType": "bool",
          "name": "approved",
          "type": "bool"
        }
      ],
      "name": "setApprovalForAll",
      "outputs": [],
      "stateMutability": "nonpayable",
      "type": "function"
    },
    {
      "inputs": [
        {
          "internalType": "bytes4",
          "name": "interfaceId",
          "type": "bytes4"
        }
      ],
      "name": "supportsInterface",
      "outputs": [
        {
          "internalType": "bool",
          "name": "",
          "type": "bool"
        }
      ],
      "stateMutability": "view",
      "type": "function"
    },
    {
      "inputs": [],
      "name": "symbol",
      "outputs": [
        {
          "internalType": "string",
          "name": "",
          "type": "string"
        }
      ],
      "stateMutability": "view",
      "type": "function"
    },
    {
      "inputs": [
        {
          "components": [
            {
              "internalType": "uint72",
              "name": "flashFee",
              "type": "uint72"
            },
            {
              "internalType": "uint72",
              "name": "pricePerBlock",
              "type": "uint72"
            },
            {
              "internalType": "uint24",
              "name": "maxLongtermBlocks",
              "type": "uint24"
            },
            {
              "internalType": "uint32",
              "name": "inLongtermTillBlock",
              "type": "uint32"
            },
            {
              "internalType": "uint32",
              "name": "borrowerNFTId",
              "type": "uint32"
            },
            {
              "internalType": "uint32",
              "name": "lenderNFTId",
              "type": "uint32"
            }
          ],
          "internalType": "struct INafta.PoolNFT",
          "name": "poolNFT",
          "type": "tuple"
        }
      ],
      "name": "toBigPoolNFT",
      "outputs": [
        {
          "components": [
            {
              "internalType": "uint256",
              "name": "flashFee",
              "type": "uint256"
            },
            {
              "internalType": "uint256",
              "name": "pricePerBlock",
              "type": "uint256"
            },
            {
              "internalType": "uint256",
              "name": "maxLongtermBlocks",
              "type": "uint256"
            },
            {
              "internalType": "uint256",
              "name": "inLongtermTillBlock",
              "type": "uint256"
            },
            {
              "internalType": "uint256",
              "name": "borrowerNFTId",
              "type": "uint256"
            },
            {
              "internalType": "uint256",
              "name": "lenderNFTId",
              "type": "uint256"
            }
          ],
          "internalType": "struct INafta.BigPoolNFT",
          "name": "",
          "type": "tuple"
        }
      ],
      "stateMutability": "pure",
      "type": "function"
    },
    {
      "inputs": [
        {
          "internalType": "uint256",
          "name": "tokenId",
          "type": "uint256"
        }
      ],
      "name": "tokenURI",
      "outputs": [
        {
          "internalType": "string",
          "name": "",
          "type": "string"
        }
      ],
      "stateMutability": "view",
      "type": "function"
    },
    {
      "inputs": [
        {
          "internalType": "address",
          "name": "from",
          "type": "address"
        },
        {
          "internalType": "address",
          "name": "to",
          "type": "address"
        },
        {
          "internalType": "uint256",
          "name": "tokenId",
          "type": "uint256"
        }
      ],
      "name": "transferFrom",
      "outputs": [],
      "stateMutability": "nonpayable",
      "type": "function"
    },
    {
      "inputs": [
        {
          "internalType": "address",
          "name": "newOwner",
          "type": "address"
        }
      ],
      "name": "transferOwnership",
      "outputs": [],
      "stateMutability": "nonpayable",
      "type": "function"
    },
    {
      "inputs": [],
      "name": "withdrawEarnings",
      "outputs": [],
      "stateMutability": "nonpayable",
      "type": "function"
    }
  ],
  "bytecode": "0x60a06040526000600c55640100000000600d553480156200001f57600080fd5b5060405162005196380380620051968339810160408190526200004291620002d5565b60408051808201825260088152671398599d1853919560c21b6020808301918252835180850190945260058452644e4146544160d81b9084015281519192916200008f9160009162000219565b508051620000a590600190602084019062000219565b505050620000c2620000bc620000ee60201b60201c565b620000f2565b6001600160a01b038116608052620000e68262000144602090811b6200348817901c565b505062000351565b3390565b600680546001600160a01b038381166001600160a01b0319831681179093556040519116919082907f8be0079c531659141344cd1fd0a4f28419497f9722a3daafe3b4186f6b6457e090600090a35050565b6006546001600160a01b03163314620001a45760405162461bcd60e51b815260206004820181905260248201527f4f776e61626c653a2063616c6c6572206973206e6f7420746865206f776e657260448201526064015b60405180910390fd5b6001600160a01b0381166200020b5760405162461bcd60e51b815260206004820152602660248201527f4f776e61626c653a206e6577206f776e657220697320746865207a65726f206160448201526564647265737360d01b60648201526084016200019b565b6200021681620000f2565b50565b828054620002279062000314565b90600052602060002090601f0160209004810192826200024b576000855562000296565b82601f106200026657805160ff191683800117855562000296565b8280016001018555821562000296579182015b828111156200029657825182559160200191906001019062000279565b50620002a4929150620002a8565b5090565b5b80821115620002a45760008155600101620002a9565b6001600160a01b03811681146200021657600080fd5b60008060408385031215620002e957600080fd5b8251620002f681620002bf565b60208401519092506200030981620002bf565b809150509250929050565b600181811c908216806200032957607f821691505b602082108114156200034b57634e487b7160e01b600052602260045260246000fd5b50919050565b608051614e1b6200037b600039600081816113cb0152818161290d0152612e200152614e1b6000f3fe608060405234801561001057600080fd5b506004361061025c5760003560e01c806370a0823111610145578063b73c6ce9116100bd578063c94c9c921161008c578063e985e9c511610071578063e985e9c5146106e4578063f2fde38b1461072d578063ffc3fddd1461074057600080fd5b8063c94c9c92146106bb578063d153b60c146106c457600080fd5b8063b73c6ce91461067a578063b779cf9614610682578063b88d4fde14610695578063c87b56dd146106a857600080fd5b806395d89b41116101145780639c3d550c116100f95780639c3d550c1461064b578063a22cb46514610654578063b1f8100d1461066757600080fd5b806395d89b41146106305780639b9c72461461063857600080fd5b806370a08231146105e4578063715018a6146105f75780637bbdb7da146105ff5780638da5cb5b1461061257600080fd5b806323b872dd116101d857806349fd566b116101a757806352d1976a1161018c57806352d1976a1461059e578063543fd313146105b15780636352211e146105d157600080fd5b806349fd566b146105835780634e71e0c81461059657600080fd5b806323b872dd146103c157806342842e0e146103d45780634478ea3f146103e7578063469e1322146103fa57600080fd5b8063095ea7b31161022f578063150b7a0211610214578063150b7a021461030b57806317f750221461034f5780631df58604146103ae57600080fd5b8063095ea7b3146102ed5780630e8ffd531461030257600080fd5b806301ffc9a71461026157806306fdde0314610289578063081812fc1461029e578063089fe6aa146102d6575b600080fd5b61027461026f366004614522565b610753565b60405190151581526020015b60405180910390f35b610291610838565b60405161028091906145b5565b6102b16102ac3660046145c8565b6108ca565b60405173ffffffffffffffffffffffffffffffffffffffff9091168152602001610280565b6102df60095481565b604051908152602001610280565b6103006102fb366004614603565b6109a9565b005b6102df600a5481565b61031e6103193660046146d6565b610b36565b6040517fffffffff000000000000000000000000000000000000000000000000000000009091168152602001610280565b61036261035d3660046147ea565b610b60565b6040516102809190600060c082019050825182526020830151602083015260408301516040830152606083015160608301526080830151608083015260a083015160a083015292915050565b6103006103bc366004614603565b610c20565b6103006103cf366004614875565b610ee5565b6103006103e2366004614875565b610f86565b6103006103f53660046148b6565b610fa1565b610515610408366004614603565b6040805160c081018252600080825260208201819052918101829052606081018290526080810182905260a08101919091525073ffffffffffffffffffffffffffffffffffffffff909116600090815260076020908152604080832093835292815290829020825160c081018452815468ffffffffffffffffff808216835269010000000000000000008204169382019390935262ffffff72010000000000000000000000000000000000008404169381019390935263ffffffff750100000000000000000000000000000000000000000083048116606085015279010000000000000000000000000000000000000000000000000090920482166080840152600101541660a082015290565b6040516102809190600060c08201905068ffffffffffffffffff8084511683528060208501511660208401525062ffffff6040840151166040830152606083015163ffffffff80821660608501528060808601511660808501528060a08601511660a0850152505092915050565b610300610591366004614603565b611800565b610300611bc4565b6103006105ac366004614908565b611c76565b6102df6105bf36600461494c565b60086020526000908152604090205481565b6102b16105df3660046145c8565b61203c565b6102df6105f236600461494c565b6120ee565b6103006121bc565b61051561060d366004614969565b612247565b60065473ffffffffffffffffffffffffffffffffffffffff166102b1565b610291612300565b6103006106463660046149c3565b61230f565b6102df600d5481565b610300610662366004614a7b565b612c74565b61030061067536600461494c565b612c83565b610300612d4b565b610300610690366004614908565b612f2e565b6103006106a33660046146d6565b6132c3565b6102916106b63660046145c8565b61336b565b6102df600c5481565b600b546102b19073ffffffffffffffffffffffffffffffffffffffff1681565b6102746106f2366004614ab4565b73ffffffffffffffffffffffffffffffffffffffff918216600090815260056020908152604080832093909416825291909152205460ff1690565b61030061073b36600461494c565b613488565b61030061074e3660046145c8565b6135b8565b60007fffffffff0000000000000000000000000000000000000000000000000000000082167f80ac58cd0000000000000000000000000000000000000000000000000000000014806107e657507fffffffff0000000000000000000000000000000000000000000000000000000082167f5b5e139f00000000000000000000000000000000000000000000000000000000145b8061083257507f01ffc9a7000000000000000000000000000000000000000000000000000000007fffffffff000000000000000000000000000000000000000000000000000000008316145b92915050565b60606000805461084790614ae2565b80601f016020809104026020016040519081016040528092919081815260200182805461087390614ae2565b80156108c05780601f10610895576101008083540402835291602001916108c0565b820191906000526020600020905b8154815290600101906020018083116108a357829003601f168201915b5050505050905090565b60008181526002602052604081205473ffffffffffffffffffffffffffffffffffffffff16610980576040517f08c379a000000000000000000000000000000000000000000000000000000000815260206004820152602c60248201527f4552433732313a20617070726f76656420717565727920666f72206e6f6e657860448201527f697374656e7420746f6b656e000000000000000000000000000000000000000060648201526084015b60405180910390fd5b5060009081526004602052604090205473ffffffffffffffffffffffffffffffffffffffff1690565b60006109b48261203c565b90508073ffffffffffffffffffffffffffffffffffffffff168373ffffffffffffffffffffffffffffffffffffffff161415610a72576040517f08c379a000000000000000000000000000000000000000000000000000000000815260206004820152602160248201527f4552433732313a20617070726f76616c20746f2063757272656e74206f776e6560448201527f72000000000000000000000000000000000000000000000000000000000000006064820152608401610977565b3373ffffffffffffffffffffffffffffffffffffffff82161480610a9b5750610a9b81336106f2565b610b27576040517f08c379a000000000000000000000000000000000000000000000000000000000815260206004820152603860248201527f4552433732313a20617070726f76652063616c6c6572206973206e6f74206f7760448201527f6e6572206e6f7220617070726f76656420666f7220616c6c00000000000000006064820152608401610977565b610b3183836137ce565b505050565b7f150b7a02000000000000000000000000000000000000000000000000000000005b949350505050565b610b996040518060c001604052806000815260200160008152602001600081526020016000815260200160008152602001600081525090565b6040518060c00160405280836000015168ffffffffffffffffff168152602001836020015168ffffffffffffffffff168152602001836040015162ffffff168152602001836060015163ffffffff168152602001836080015163ffffffff1681526020018360a0015163ffffffff16640100000000610c189190614b65565b905292915050565b73ffffffffffffffffffffffffffffffffffffffff821660009081526007602090815260408083208484528252808320815160c081018352815468ffffffffffffffffff808216835269010000000000000000008204169482019490945262ffffff72010000000000000000000000000000000000008504169281019290925263ffffffff7501000000000000000000000000000000000000000000840481166060840152790100000000000000000000000000000000000000000000000000909304831660808301526001015490911660a0820152610cff90610b60565b905060008160600151118015610d185750438160600151105b15610b3157610d2a816080015161386e565b6000608082018190526060820152610d4181612247565b73ffffffffffffffffffffffffffffffffffffffff939093166000908152600760209081526040808320948352938152908390208451815492860151948601516060870151608088015168ffffffffffffffffff9384167fffffffffffffffffffffffffffff0000000000000000000000000000000000009096169590951769010000000000000000009390971692909202959095177fffffffffffffff00000000000000ffffffffffffffffffffffffffffffffffff16720100000000000000000000000000000000000062ffffff909616959095027fffffffffffffff00000000ffffffffffffffffffffffffffffffffffffffffff1694909417750100000000000000000000000000000000000000000063ffffffff95861602177fffffff00000000ffffffffffffffffffffffffffffffffffffffffffffffffff167901000000000000000000000000000000000000000000000000009285169290920291909117815560a090930151600190930180547fffffffffffffffffffffffffffffffffffffffffffffffffffffffff00000000169390921692909217905550565b610eef338261393b565b610f7b576040517f08c379a000000000000000000000000000000000000000000000000000000000815260206004820152603160248201527f4552433732313a207472616e736665722063616c6c6572206973206e6f74206f60448201527f776e6572206e6f7220617070726f7665640000000000000000000000000000006064820152608401610977565b610b31838383613aa7565b610b31838383604051806020016040528060008152506132c3565b73ffffffffffffffffffffffffffffffffffffffff851660009081526007602090815260408083208784528252808320815160c081018352815468ffffffffffffffffff808216835269010000000000000000008204169482019490945262ffffff72010000000000000000000000000000000000008504169281019290925263ffffffff7501000000000000000000000000000000000000000000840481166060840152790100000000000000000000000000000000000000000000000000909304831660808301526001015490911660a082015261108090610b60565b90506000816020015111611116576040517f08c379a000000000000000000000000000000000000000000000000000000000815260206004820152602a60248201527f54686973204e46542069736e277420617661696c61626c6520666f72206c6f6e60448201527f677465726d2072656e74000000000000000000000000000000000000000000006064820152608401610977565b80604001518211156111aa576040517f08c379a000000000000000000000000000000000000000000000000000000000815260206004820152602b60248201527f4e46542063616e27742062652072656e74656420666f72207468617420616d6f60448201527f756e74206f662074696d650000000000000000000000000000000000000000006064820152608401610977565b6111b48686610c20565b43816060015110611247576040517f08c379a000000000000000000000000000000000000000000000000000000000815260206004820152602f60248201527f43616e27742072656e74206c6f6e677465726d2062656361757365206974277360448201527f20616c72656164792072656e74656400000000000000000000000000000000006064820152608401610977565b83816020015111156112db576040517f08c379a000000000000000000000000000000000000000000000000000000000815260206004820152602a60248201527f43616e27742072656e7420746865204e46542077697468207468652073656c6560448201527f63746564207072696365000000000000000000000000000000000000000000006064820152608401610977565b6112e58243614b65565b606082015260208101516000906112fc9084614b7d565b8251909150811015611390576040517f08c379a000000000000000000000000000000000000000000000000000000000815260206004820152602d60248201527f4c6f6e677465726d2072656e742063616e27742062652063686561706572207460448201527f68616e20666c6173686c6f616e000000000000000000000000000000000000006064820152608401610977565b6040517f23b872dd000000000000000000000000000000000000000000000000000000008152336004820152306024820152604481018290527f000000000000000000000000000000000000000000000000000000000000000073ffffffffffffffffffffffffffffffffffffffff16906323b872dd906064016020604051808303816000875af1158015611429573d6000803e3d6000fd5b505050506040513d601f19601f8201168201806040525081019061144d9190614bba565b6114b3576040517f08c379a000000000000000000000000000000000000000000000000000000000815260206004820181905260248201527f43616e2774207472616e73666572205745544839206c656e64657220666565736044820152606401610977565b6000670de0b6b3a7640000826009546114cc9190614b7d565b6114d69190614c06565b9050801561155157806008600061150260065473ffffffffffffffffffffffffffffffffffffffff1690565b73ffffffffffffffffffffffffffffffffffffffff1673ffffffffffffffffffffffffffffffffffffffff168152602001908152602001600020600082825461154b9190614b65565b90915550505b61155b8183614c1a565b6008600061156c8660a0015161203c565b73ffffffffffffffffffffffffffffffffffffffff1673ffffffffffffffffffffffffffffffffffffffff16815260200190815260200160002060008282546115b59190614b65565b9091555050600c546000906115cb906001614b65565b600c8190556080850181905290506115e284612247565b73ffffffffffffffffffffffffffffffffffffffff8a1660009081526007602090815260408083208c84528252918290208351815492850151938501516060860151608087015168ffffffffffffffffff9384167fffffffffffffffffffffffffffff0000000000000000000000000000000000009096169590951769010000000000000000009390961692909202949094177fffffffffffffff00000000000000ffffffffffffffffffffffffffffffffffff16720100000000000000000000000000000000000062ffffff909516949094027fffffffffffffff00000000ffffffffffffffffffffffffffffffffffffffffff1693909317750100000000000000000000000000000000000000000063ffffffff94851602177fffffff00000000ffffffffffffffffffffffffffffffffffffffffffffffffff167901000000000000000000000000000000000000000000000000009284169290920291909117815560a090920151600190920180547fffffffffffffffffffffffffffffffffffffffffffffffffffffffff00000000169290911691909117905561178a8682613d0e565b6040805173ffffffffffffffffffffffffffffffffffffffff8b168152602081018a905290810186905260608101849052608081018290523360a08201527fbb7c4e46b4b8b3736a5f0db61bd74377c6338dca392b4167a7fe36de7737f7c89060c00160405180910390a1505050505050505050565b73ffffffffffffffffffffffffffffffffffffffff821660009081526007602090815260408083208484528252808320815160c081018352815468ffffffffffffffffff808216835269010000000000000000008204169482019490945262ffffff72010000000000000000000000000000000000008504169281019290925263ffffffff7501000000000000000000000000000000000000000000840481166060840152790100000000000000000000000000000000000000000000000000909304831660808301526001015490911660a08201526118df90610b60565b90503373ffffffffffffffffffffffffffffffffffffffff166119058260a0015161203c565b73ffffffffffffffffffffffffffffffffffffffff16146119a8576040517f08c379a000000000000000000000000000000000000000000000000000000000815260206004820152603760248201527f4f6e6c79206f776e6572206f662074686520636f72726573706f6e64696e672060448201527f4c656e6465724e46542063616e2063616c6c20746869730000000000000000006064820152608401610977565b43816060015110611a3b576040517f08c379a000000000000000000000000000000000000000000000000000000000815260206004820152603560248201527f43616e27742072656d6f7665204e46542066726f6d2074686520706f6f6c207760448201527f68696c6520696e206c6f6e677465726d2072656e7400000000000000000000006064820152608401610977565b611a458383610c20565b73ffffffffffffffffffffffffffffffffffffffff83166000908152600760209081526040808320858452909152902080547fffffff000000000000000000000000000000000000000000000000000000000016815560010180547fffffffffffffffffffffffffffffffffffffffffffffffffffffffff0000000016905560a0810151611ad29061386e565b6040517f42842e0e0000000000000000000000000000000000000000000000000000000081523060048201523360248201526044810183905273ffffffffffffffffffffffffffffffffffffffff8416906342842e0e90606401600060405180830381600087803b158015611b4657600080fd5b505af1158015611b5a573d6000803e3d6000fd5b5050505060a08101516040805173ffffffffffffffffffffffffffffffffffffffff861681526020810185905280820192909252336060830152517fb2052cb24ccf368bd2f25dc5469a503f8cee339635f7391c0b72cce58b8f1fc69181900360800190a1505050565b600b5473ffffffffffffffffffffffffffffffffffffffff163314611c6b576040517f08c379a000000000000000000000000000000000000000000000000000000000815260206004820152602b60248201527f4f6e6c792070726f706f736564206f776e65722063616e20636c61696d20746860448201527f65206f776e6572736869700000000000000000000000000000000000000000006064820152608401610977565b611c7433613d28565b565b73ffffffffffffffffffffffffffffffffffffffff851660009081526007602090815260408083208784528252808320815160c081018352815468ffffffffffffffffff808216835269010000000000000000008204169482019490945262ffffff72010000000000000000000000000000000000008504169281019290925263ffffffff7501000000000000000000000000000000000000000000840481166060840152790100000000000000000000000000000000000000000000000000909304831660808301526001015490911660a0820152611d5590610b60565b90503373ffffffffffffffffffffffffffffffffffffffff16611d7b8260a0015161203c565b73ffffffffffffffffffffffffffffffffffffffff1614611e1e576040517f08c379a000000000000000000000000000000000000000000000000000000000815260206004820152603760248201527f4f6e6c79206f776e6572206f662074686520636f72726573706f6e64696e672060448201527f4c656e6465724e46542063616e2063616c6c20746869730000000000000000006064820152608401610977565b8381526020810183905260408101829052611e3881612247565b73ffffffffffffffffffffffffffffffffffffffff871660008181526007602090815260408083208a84528252918290208451815486840151878601516060808a01516080808c015168ffffffffffffffffff9788167fffffffffffffffffffffffffffff0000000000000000000000000000000000009097169690961769010000000000000000009790951696909602939093177fffffffffffffff00000000000000ffffffffffffffffffffffffffffffffffff16720100000000000000000000000000000000000062ffffff909316929092027fffffffffffffff00000000ffffffffffffffffffffffffffffffffffffffffff1691909117750100000000000000000000000000000000000000000063ffffffff93841602177fffffff00000000ffffffffffffffffffffffffffffffffffffffffffffffffff167901000000000000000000000000000000000000000000000000009383169390930292909217845560a097880151600190940180547fffffffffffffffffffffffffffffffffffffffffffffffffffffffff000000001694909116939093179092558686015184519586529285018b90529284018990528301879052908201859052918101919091523360c08201527ffd7cc319d4c8a3dc9db454b72f8daf14ed6b258a029fbd80efb88d7015c5ea729060e0015b60405180910390a1505050505050565b60008181526002602052604081205473ffffffffffffffffffffffffffffffffffffffff1680610832576040517f08c379a000000000000000000000000000000000000000000000000000000000815260206004820152602960248201527f4552433732313a206f776e657220717565727920666f72206e6f6e657869737460448201527f656e7420746f6b656e00000000000000000000000000000000000000000000006064820152608401610977565b600073ffffffffffffffffffffffffffffffffffffffff8216612193576040517f08c379a000000000000000000000000000000000000000000000000000000000815260206004820152602a60248201527f4552433732313a2062616c616e636520717565727920666f7220746865207a6560448201527f726f2061646472657373000000000000000000000000000000000000000000006064820152608401610977565b5073ffffffffffffffffffffffffffffffffffffffff1660009081526003602052604090205490565b60065473ffffffffffffffffffffffffffffffffffffffff16331461223d576040517f08c379a000000000000000000000000000000000000000000000000000000000815260206004820181905260248201527f4f776e61626c653a2063616c6c6572206973206e6f7420746865206f776e65726044820152606401610977565b611c746000613d28565b6040805160c081018252600080825260208201819052918101829052606081018290526080810182905260a08101919091526040518060c00160405280836000015168ffffffffffffffffff168152602001836020015168ffffffffffffffffff168152602001836040015162ffffff168152602001836060015163ffffffff168152602001836080015163ffffffff1681526020016401000000008460a001516122f29190614c1a565b63ffffffff16905292915050565b60606001805461084790614ae2565b6040517f6352211e00000000000000000000000000000000000000000000000000000000815260048101869052309073ffffffffffffffffffffffffffffffffffffffff881690636352211e90602401602060405180830381865afa15801561237c573d6000803e3d6000fd5b505050506040513d601f19601f820116820180604052508101906123a09190614c31565b73ffffffffffffffffffffffffffffffffffffffff161461241d576040517f08c379a000000000000000000000000000000000000000000000000000000000815260206004820152601960248201527f4e46542073686f756c6420626520696e2074686520706f6f6c000000000000006044820152606401610977565b6124278686610c20565b73ffffffffffffffffffffffffffffffffffffffff861660009081526007602090815260408083208884528252808320815160c081018352815468ffffffffffffffffff808216835269010000000000000000008204169482019490945262ffffff72010000000000000000000000000000000000008504169281019290925263ffffffff7501000000000000000000000000000000000000000000840481166060840152790100000000000000000000000000000000000000000000000000909304831660808301526001015490911660a082015261250690610b60565b60608101519091504311801590612604573373ffffffffffffffffffffffffffffffffffffffff1661253b836080015161203c565b73ffffffffffffffffffffffffffffffffffffffff1614612604576040517f08c379a000000000000000000000000000000000000000000000000000000000815260206004820152605f60248201527f54686973204e465420697320696e206c6f6e677465726d2072656e74202d207960448201527f6f752063616e277420666c6173686c6f616e20697420756e6c65737320796f7560648201527f206861766520636f72726573706f6e64696e6720426f72726f7765724e465400608482015260a401610977565b600081612612578251612615565b60005b9050868111156126a7576040517f08c379a000000000000000000000000000000000000000000000000000000000815260206004820152603460248201527f596f752063616e27742074616b652074686520666c6173686c6f616e20666f7260448201527f2074686520696e646963617465642070726963650000000000000000000000006064820152608401610977565b6040517f42842e0e00000000000000000000000000000000000000000000000000000000815230600482015273ffffffffffffffffffffffffffffffffffffffff8088166024830152604482018a90528791908b16906342842e0e90606401600060405180830381600087803b15801561272057600080fd5b505af1158015612734573d6000803e3d6000fd5b50506040517f1b11d0ff00000000000000000000000000000000000000000000000000000000815273ffffffffffffffffffffffffffffffffffffffff84169250631b11d0ff9150612794908d908d90879033908d908d90600401614c4e565b6020604051808303816000875af11580156127b3573d6000803e3d6000fd5b505050506040513d601f19601f820116820180604052508101906127d79190614bba565b61283d576040517f08c379a000000000000000000000000000000000000000000000000000000000815260206004820152601f60248201527f4572726f7220647572696e6720466c6173684e465420457865637574696f6e006044820152606401610977565b6040517f42842e0e00000000000000000000000000000000000000000000000000000000815273ffffffffffffffffffffffffffffffffffffffff8881166004830152306024830152604482018b90528b16906342842e0e90606401600060405180830381600087803b1580156128b357600080fd5b505af11580156128c7573d6000803e3d6000fd5b50505050828061298f57506040517f23b872dd000000000000000000000000000000000000000000000000000000008152336004820152306024820152604481018390527f000000000000000000000000000000000000000000000000000000000000000073ffffffffffffffffffffffffffffffffffffffff16906323b872dd906064016020604051808303816000875af115801561296b573d6000803e3d6000fd5b505050506040513d601f19601f8201168201806040525081019061298f9190614bba565b6129f5576040517f08c379a000000000000000000000000000000000000000000000000000000000815260206004820181905260248201527f43616e2774207472616e73666572205745544839206c656e64657220666565736044820152606401610977565b6000670de0b6b3a764000083600954612a0e9190614b7d565b612a189190614c06565b90508015612a93578060086000612a4460065473ffffffffffffffffffffffffffffffffffffffff1690565b73ffffffffffffffffffffffffffffffffffffffff1673ffffffffffffffffffffffffffffffffffffffff1681526020019081526020016000206000828254612a8d9190614b65565b90915550505b612a9d8184614c1a565b60086000612aae8860a0015161203c565b73ffffffffffffffffffffffffffffffffffffffff1673ffffffffffffffffffffffffffffffffffffffff1681526020019081526020016000206000828254612af79190614b65565b90915550506040517f6352211e000000000000000000000000000000000000000000000000000000008152600481018b9052309073ffffffffffffffffffffffffffffffffffffffff8d1690636352211e90602401602060405180830381865afa158015612b69573d6000803e3d6000fd5b505050506040513d601f19601f82011682018060405250810190612b8d9190614c31565b73ffffffffffffffffffffffffffffffffffffffff1614612c0a576040517f08c379a000000000000000000000000000000000000000000000000000000000815260206004820152601960248201527f4e46542073686f756c6420626520696e2074686520706f6f6c000000000000006044820152606401610977565b6040805173ffffffffffffffffffffffffffffffffffffffff8d168152602081018c90529081018490523360608201527ff9e53c874eda21d24939d6e987e2c85a32d19fc83535a302b9214132182384b09060800160405180910390a15050505050505050505050565b612c7f338383613d9f565b5050565b60065473ffffffffffffffffffffffffffffffffffffffff163314612d04576040517f08c379a000000000000000000000000000000000000000000000000000000000815260206004820181905260248201527f4f776e61626c653a2063616c6c6572206973206e6f7420746865206f776e65726044820152606401610977565b600b80547fffffffffffffffffffffffff00000000000000000000000000000000000000001673ffffffffffffffffffffffffffffffffffffffff92909216919091179055565b3360009081526008602052604090205480612dc2576040517f08c379a000000000000000000000000000000000000000000000000000000000815260206004820152601760248201527f4e6f206561726e696e677320746f2077697468647261770000000000000000006044820152606401610977565b3360008181526008602052604080822091909155517fa9059cbb00000000000000000000000000000000000000000000000000000000815260048101919091526024810182905273ffffffffffffffffffffffffffffffffffffffff7f0000000000000000000000000000000000000000000000000000000000000000169063a9059cbb906044016020604051808303816000875af1158015612e69573d6000803e3d6000fd5b505050506040513d601f19601f82011682018060405250810190612e8d9190614bba565b612ef3576040517f08c379a000000000000000000000000000000000000000000000000000000000815260206004820152601560248201527f5745544839207472616e73666572206661696c656400000000000000000000006044820152606401610977565b604080518281523360208201527f2c459af5dbdc73e026e5e2d6c3e8c986fd1eb66e32969a0ccf39c65fb39d21ca910160405180910390a150565b73ffffffffffffffffffffffffffffffffffffffff8516600090815260076020908152604080832087845290915290206001015463ffffffff1615612fcf576040517f08c379a000000000000000000000000000000000000000000000000000000000815260206004820152601a60248201527f4e465420697320616c726561647920696e2074686520506f6f6c0000000000006044820152606401610977565b6040517f42842e0e0000000000000000000000000000000000000000000000000000000081523360048201523060248201526044810185905273ffffffffffffffffffffffffffffffffffffffff8616906342842e0e90606401600060405180830381600087803b15801561304357600080fd5b505af1158015613057573d6000803e3d6000fd5b505050506000600d54600161306c9190614b65565b905080600d819055506130ac6040518060c00160405280868152602001858152602001848152602001600081526020016000815260200183815250612247565b73ffffffffffffffffffffffffffffffffffffffff871660009081526007602090815260408083208984528252918290208351815492850151938501516060860151608087015168ffffffffffffffffff9384167fffffffffffffffffffffffffffff0000000000000000000000000000000000009096169590951769010000000000000000009390961692909202949094177fffffffffffffff00000000000000ffffffffffffffffffffffffffffffffffff16720100000000000000000000000000000000000062ffffff909516949094027fffffffffffffff00000000ffffffffffffffffffffffffffffffffffffffffff1693909317750100000000000000000000000000000000000000000063ffffffff94851602177fffffff00000000ffffffffffffffffffffffffffffffffffffffffffffffffff167901000000000000000000000000000000000000000000000000009284169290920291909117815560a090920151600190920180547fffffffffffffffffffffffffffffffffffffffffffffffffffffffff0000000016929091169190911790556132543382613d0e565b6040805173ffffffffffffffffffffffffffffffffffffffff8816815260208101879052908101859052606081018490526080810183905260a081018290523360c08201527fc1f7d9ccf422fe4ae58ca35f2092340ffc9dc7bd649881994a86512d986215469060e00161202c565b6132cd338361393b565b613359576040517f08c379a000000000000000000000000000000000000000000000000000000000815260206004820152603160248201527f4552433732313a207472616e736665722063616c6c6572206973206e6f74206f60448201527f776e6572206e6f7220617070726f7665640000000000000000000000000000006064820152608401610977565b61336584848484613ecd565b50505050565b60008181526002602052604090205460609073ffffffffffffffffffffffffffffffffffffffff1661341f576040517f08c379a000000000000000000000000000000000000000000000000000000000815260206004820152602f60248201527f4552433732314d657461646174613a2055524920717565727920666f72206e6f60448201527f6e6578697374656e7420746f6b656e00000000000000000000000000000000006064820152608401610977565b600061343660408051602081019091526000815290565b905060008151116134565760405180602001604052806000815250613481565b8061346084613f70565b604051602001613471929190614cd4565b6040516020818303038152906040525b9392505050565b60065473ffffffffffffffffffffffffffffffffffffffff163314613509576040517f08c379a000000000000000000000000000000000000000000000000000000000815260206004820181905260248201527f4f776e61626c653a2063616c6c6572206973206e6f7420746865206f776e65726044820152606401610977565b73ffffffffffffffffffffffffffffffffffffffff81166135ac576040517f08c379a000000000000000000000000000000000000000000000000000000000815260206004820152602660248201527f4f776e61626c653a206e6577206f776e657220697320746865207a65726f206160448201527f64647265737300000000000000000000000000000000000000000000000000006064820152608401610977565b6135b581613d28565b50565b60065473ffffffffffffffffffffffffffffffffffffffff163314613639576040517f08c379a000000000000000000000000000000000000000000000000000000000815260206004820181905260248201527f4f776e61626c653a2063616c6c6572206973206e6f7420746865206f776e65726044820152606401610977565b6000600954821161365757816009546136529190614c1a565b613664565b6009546136649083614c1a565b9050662386f26fc1000081106136fc576040517f08c379a000000000000000000000000000000000000000000000000000000000815260206004820152603260248201527f43616e2774206368616e67652074686520706f6f6c20666565206d6f7265207460448201527f68616e20312520696e206f6e65207374657000000000000000000000000000006064820152608401610977565b600a5443141561378e576040517f08c379a000000000000000000000000000000000000000000000000000000000815260206004820152603360248201527f43616e2774206368616e67652074686520706f6f6c20666565206d6f7265207460448201527f68616e206f6e636520696e206120626c6f636b000000000000000000000000006064820152608401610977565b600982905543600a556040518281527fd1d8d097d1660cb81b6153e880952b8eedb2818c55f0d2b750bea21d98ef26c59060200160405180910390a15050565b600081815260046020526040902080547fffffffffffffffffffffffff00000000000000000000000000000000000000001673ffffffffffffffffffffffffffffffffffffffff841690811790915581906138288261203c565b73ffffffffffffffffffffffffffffffffffffffff167f8c5be1e5ebec7d5bd14f71427d1e84f3dd0314c0f7b2291e5b200ac8c7c3b92560405160405180910390a45050565b60006138798261203c565b90506138866000836137ce565b73ffffffffffffffffffffffffffffffffffffffff811660009081526003602052604081208054600192906138bc908490614c1a565b909155505060008281526002602052604080822080547fffffffffffffffffffffffff00000000000000000000000000000000000000001690555183919073ffffffffffffffffffffffffffffffffffffffff8416907fddf252ad1be2c89b69c2b068fc378daa952ba7f163c4a11628f55a4df523b3ef908390a45050565b60008181526002602052604081205473ffffffffffffffffffffffffffffffffffffffff166139ec576040517f08c379a000000000000000000000000000000000000000000000000000000000815260206004820152602c60248201527f4552433732313a206f70657261746f7220717565727920666f72206e6f6e657860448201527f697374656e7420746f6b656e00000000000000000000000000000000000000006064820152608401610977565b60006139f78361203c565b90508073ffffffffffffffffffffffffffffffffffffffff168473ffffffffffffffffffffffffffffffffffffffff161480613a6657508373ffffffffffffffffffffffffffffffffffffffff16613a4e846108ca565b73ffffffffffffffffffffffffffffffffffffffff16145b80610b58575073ffffffffffffffffffffffffffffffffffffffff80821660009081526005602090815260408083209388168352929052205460ff16610b58565b8273ffffffffffffffffffffffffffffffffffffffff16613ac78261203c565b73ffffffffffffffffffffffffffffffffffffffff1614613b6a576040517f08c379a000000000000000000000000000000000000000000000000000000000815260206004820152602960248201527f4552433732313a207472616e73666572206f6620746f6b656e2074686174206960448201527f73206e6f74206f776e00000000000000000000000000000000000000000000006064820152608401610977565b73ffffffffffffffffffffffffffffffffffffffff8216613c0c576040517f08c379a0000000000000000000000000000000000000000000000000000000008152602060048201526024808201527f4552433732313a207472616e7366657220746f20746865207a65726f2061646460448201527f72657373000000000000000000000000000000000000000000000000000000006064820152608401610977565b613c176000826137ce565b73ffffffffffffffffffffffffffffffffffffffff83166000908152600360205260408120805460019290613c4d908490614c1a565b909155505073ffffffffffffffffffffffffffffffffffffffff82166000908152600360205260408120805460019290613c88908490614b65565b909155505060008181526002602052604080822080547fffffffffffffffffffffffff00000000000000000000000000000000000000001673ffffffffffffffffffffffffffffffffffffffff86811691821790925591518493918716917fddf252ad1be2c89b69c2b068fc378daa952ba7f163c4a11628f55a4df523b3ef91a4505050565b612c7f8282604051806020016040528060008152506140a2565b6006805473ffffffffffffffffffffffffffffffffffffffff8381167fffffffffffffffffffffffff0000000000000000000000000000000000000000831681179093556040519116919082907f8be0079c531659141344cd1fd0a4f28419497f9722a3daafe3b4186f6b6457e090600090a35050565b8173ffffffffffffffffffffffffffffffffffffffff168373ffffffffffffffffffffffffffffffffffffffff161415613e35576040517f08c379a000000000000000000000000000000000000000000000000000000000815260206004820152601960248201527f4552433732313a20617070726f766520746f2063616c6c6572000000000000006044820152606401610977565b73ffffffffffffffffffffffffffffffffffffffff83811660008181526005602090815260408083209487168084529482529182902080547fffffffffffffffffffffffffffffffffffffffffffffffffffffffffffffff001686151590811790915591519182527f17307eab39ab6107e8899845ad3d59bd9653f200f220920489ca2b5937696c31910160405180910390a3505050565b613ed8848484613aa7565b613ee484848484614145565b613365576040517f08c379a000000000000000000000000000000000000000000000000000000000815260206004820152603260248201527f4552433732313a207472616e7366657220746f206e6f6e20455243373231526560448201527f63656976657220696d706c656d656e74657200000000000000000000000000006064820152608401610977565b606081613fb057505060408051808201909152600181527f3000000000000000000000000000000000000000000000000000000000000000602082015290565b8160005b8115613fda5780613fc481614d03565b9150613fd39050600a83614c06565b9150613fb4565b60008167ffffffffffffffff811115613ff557613ff561462f565b6040519080825280601f01601f19166020018201604052801561401f576020820181803683370190505b5090505b8415610b5857614034600183614c1a565b9150614041600a86614d3c565b61404c906030614b65565b60f81b81838151811061406157614061614d50565b60200101907effffffffffffffffffffffffffffffffffffffffffffffffffffffffffffff1916908160001a90535061409b600a86614c06565b9450614023565b6140ac8383614332565b6140b96000848484614145565b610b31576040517f08c379a000000000000000000000000000000000000000000000000000000000815260206004820152603260248201527f4552433732313a207472616e7366657220746f206e6f6e20455243373231526560448201527f63656976657220696d706c656d656e74657200000000000000000000000000006064820152608401610977565b600073ffffffffffffffffffffffffffffffffffffffff84163b1561432a576040517f150b7a0200000000000000000000000000000000000000000000000000000000815273ffffffffffffffffffffffffffffffffffffffff85169063150b7a02906141bc903390899088908890600401614d7f565b6020604051808303816000875af1925050508015614215575060408051601f3d9081017fffffffffffffffffffffffffffffffffffffffffffffffffffffffffffffffe016820190925261421291810190614dc8565b60015b6142df573d808015614243576040519150601f19603f3d011682016040523d82523d6000602084013e614248565b606091505b5080516142d7576040517f08c379a000000000000000000000000000000000000000000000000000000000815260206004820152603260248201527f4552433732313a207472616e7366657220746f206e6f6e20455243373231526560448201527f63656976657220696d706c656d656e74657200000000000000000000000000006064820152608401610977565b805181602001fd5b7fffffffff00000000000000000000000000000000000000000000000000000000167f150b7a0200000000000000000000000000000000000000000000000000000000149050610b58565b506001610b58565b73ffffffffffffffffffffffffffffffffffffffff82166143af576040517f08c379a000000000000000000000000000000000000000000000000000000000815260206004820181905260248201527f4552433732313a206d696e7420746f20746865207a65726f20616464726573736044820152606401610977565b60008181526002602052604090205473ffffffffffffffffffffffffffffffffffffffff161561443b576040517f08c379a000000000000000000000000000000000000000000000000000000000815260206004820152601c60248201527f4552433732313a20746f6b656e20616c7265616479206d696e746564000000006044820152606401610977565b73ffffffffffffffffffffffffffffffffffffffff82166000908152600360205260408120805460019290614471908490614b65565b909155505060008181526002602052604080822080547fffffffffffffffffffffffff00000000000000000000000000000000000000001673ffffffffffffffffffffffffffffffffffffffff861690811790915590518392907fddf252ad1be2c89b69c2b068fc378daa952ba7f163c4a11628f55a4df523b3ef908290a45050565b7fffffffff00000000000000000000000000000000000000000000000000000000811681146135b557600080fd5b60006020828403121561453457600080fd5b8135613481816144f4565b60005b8381101561455a578181015183820152602001614542565b838111156133655750506000910152565b6000815180845261458381602086016020860161453f565b601f017fffffffffffffffffffffffffffffffffffffffffffffffffffffffffffffffe0169290920160200192915050565b602081526000613481602083018461456b565b6000602082840312156145da57600080fd5b5035919050565b73ffffffffffffffffffffffffffffffffffffffff811681146135b557600080fd5b6000806040838503121561461657600080fd5b8235614621816145e1565b946020939093013593505050565b7f4e487b7100000000000000000000000000000000000000000000000000000000600052604160045260246000fd5b60405160c0810167ffffffffffffffff811182821017156146815761468161462f565b60405290565b604051601f82017fffffffffffffffffffffffffffffffffffffffffffffffffffffffffffffffe016810167ffffffffffffffff811182821017156146ce576146ce61462f565b604052919050565b600080600080608085870312156146ec57600080fd5b84356146f7816145e1565b9350602085810135614708816145e1565b935060408601359250606086013567ffffffffffffffff8082111561472c57600080fd5b818801915088601f83011261474057600080fd5b8135818111156147525761475261462f565b614782847fffffffffffffffffffffffffffffffffffffffffffffffffffffffffffffffe0601f84011601614687565b9150808252898482850101111561479857600080fd5b808484018584013760008482840101525080935050505092959194509250565b803568ffffffffffffffffff811681146147d157600080fd5b919050565b803563ffffffff811681146147d157600080fd5b600060c082840312156147fc57600080fd5b61480461465e565b61480d836147b8565b815261481b602084016147b8565b6020820152604083013562ffffff8116811461483657600080fd5b6040820152614847606084016147d6565b6060820152614858608084016147d6565b608082015261486960a084016147d6565b60a08201529392505050565b60008060006060848603121561488a57600080fd5b8335614895816145e1565b925060208401356148a5816145e1565b929592945050506040919091013590565b600080600080600060a086880312156148ce57600080fd5b85356148d9816145e1565b9450602086013593506040860135925060608601356148f7816145e1565b949793965091946080013592915050565b600080600080600060a0868803121561492057600080fd5b853561492b816145e1565b97602087013597506040870135966060810135965060800135945092505050565b60006020828403121561495e57600080fd5b8135613481816145e1565b600060c0828403121561497b57600080fd5b61498361465e565b823581526020830135602082015260408301356040820152606083013560608201526080830135608082015260a083013560a08201528091505092915050565b60008060008060008060a087890312156149dc57600080fd5b86356149e7816145e1565b955060208701359450604087013593506060870135614a05816145e1565b9250608087013567ffffffffffffffff80821115614a2257600080fd5b818901915089601f830112614a3657600080fd5b813581811115614a4557600080fd5b8a6020828501011115614a5757600080fd5b6020830194508093505050509295509295509295565b80151581146135b557600080fd5b60008060408385031215614a8e57600080fd5b8235614a99816145e1565b91506020830135614aa981614a6d565b809150509250929050565b60008060408385031215614ac757600080fd5b8235614ad2816145e1565b91506020830135614aa9816145e1565b600181811c90821680614af657607f821691505b60208210811415614b30577f4e487b7100000000000000000000000000000000000000000000000000000000600052602260045260246000fd5b50919050565b7f4e487b7100000000000000000000000000000000000000000000000000000000600052601160045260246000fd5b60008219821115614b7857614b78614b36565b500190565b6000817fffffffffffffffffffffffffffffffffffffffffffffffffffffffffffffffff0483118215151615614bb557614bb5614b36565b500290565b600060208284031215614bcc57600080fd5b815161348181614a6d565b7f4e487b7100000000000000000000000000000000000000000000000000000000600052601260045260246000fd5b600082614c1557614c15614bd7565b500490565b600082821015614c2c57614c2c614b36565b500390565b600060208284031215614c4357600080fd5b8151613481816145e1565b600073ffffffffffffffffffffffffffffffffffffffff808916835287602084015286604084015280861660608401525060a060808301528260a0830152828460c0840137600060c0848401015260c07fffffffffffffffffffffffffffffffffffffffffffffffffffffffffffffffe0601f8501168301019050979650505050505050565b60008351614ce681846020880161453f565b835190830190614cfa81836020880161453f565b01949350505050565b60007fffffffffffffffffffffffffffffffffffffffffffffffffffffffffffffffff821415614d3557614d35614b36565b5060010190565b600082614d4b57614d4b614bd7565b500690565b7f4e487b7100000000000000000000000000000000000000000000000000000000600052603260045260246000fd5b600073ffffffffffffffffffffffffffffffffffffffff808716835280861660208401525083604083015260806060830152614dbe608083018461456b565b9695505050505050565b600060208284031215614dda57600080fd5b8151613481816144f456fea264697066735822122002793734f57ff21b7eed96157a941dd5e4ed3a05d2c7a63c4d6bd5da03d3bcd864736f6c634300080a0033",
  "linkReferences": {},
  "deployedLinkReferences": {}
}